:100000001AC033C032C031C030C02FC02EC02DC086
:100010002CC02BC02AC029C028C028C026C025C09B
:1000200024C023C022C00000FF0000000001010026
:10003000000000FF000011241FBECFEDCDBF10E077
:10004000A0E6B0E0E0EEF5E003C0C89531960D9271
:10005000A83BB107D1F710E0A8EBB0E001C01D92BA
:10006000A63CB107E1F764D1BAC2CACF1F920F9282
:100070000FB60F9211248F93EF93FF938091B800E6
:10008000880F880F8C708093B800B59B03C0826086
:100090008093B800B49B05C08091B80081608093C4
:1000A000B8008091BA00E091B800FF27E7FDF09515
:1000B000EA5DFF4FC895E02D8E0F8093BA00FF9147
:1000C000EF918F910F900FBE0F901F90189582E0C7
:1000D00080BF83E083BF8CE786BF89B7816089BF1B
:1000E0000895F8948091BA001092BA0078949927F4
:1000F00087FD9095089586B399278870907008952C
:1001000020E0E0E1F7E28E2F9F2F0197F1F7C29AEE
:100110008E2F9F2F0197F1F7C2982F5F2A3099F702
:100120000895EF92FF920F931F93CF93DF9391D196
:100130008091B90099276AE070E029D20996E82EEB
:10014000F92E0027F7FC0095102FD92FC82F22C0B9
:1001500083D180E690E095D14AE050E06BEB70E00F
:100160008C2F9D2FDFD18BEB90E08BD187E690E039
:1001700088D120E137E2E8ECF0E08E2F9F2F019745
:10018000F1F721503040C9F70894E108F10801095E
:1001900011092197E114F10401051105C9F659D19E
:1001A0008BE690E06ED161E080E049D183E790E09A
:1001B00068D1C0E0D0E0A4DF28EE33E0E8ECF0E066
:1001C0008E2F9F2F0197F1F721503040C9F798DF0C
:1001D00028EE33E0E8ECF0E08E2F9F2F0197F1F747
:1001E00021503040C9F78CDF28EE33E0E8ECF0E036
:1001F0008E2F9F2F0197F1F721503040C9F780DFF4
:1002000020E137E2E8ECF0E08E2F9F2F0197F1F725
:1002100021503040C9F774DF73DF72DF20E137E22D
:10022000E8ECF0E08E2F9F2F0197F1F7215030403E
:10023000C9F72196C530D10509F0BDCFDF91CF9127
:100240001F910F91FF90EF90089560E080E0F7D04C
:1002500081E890E016D161E080E0F1D08091C500A6
:10026000813041F0813018F0823059F407C089E8BC
:1002700090E002C08FE890E004D1089585E990E015
:1002800000D10895E2DFF8948091BA001092BA008C
:100290007894992787FD9095282F882351F0809195
:1002A000C500820F8093C500833010F01092C50006
:1002B000CCDFB39BE8CFB399FECF08950F931F9384
:1002C00060E080E0BCD08BE990E0DBD061E080E0D2
:1002D000B6D00BEB10E08091B90099276AE070E08E
:1002E00056D14AE050E0712F602F0A961BD1912F12
:1002F000802FC7D08CEA90E0C4D01F910F91089551
:10030000DDDFF8948091BA001092BA0078949927B2
:1003100087FD9095282F882331F08091B900820FB6
:100320008093B900CBDFB39BECCFB399FECF089598
:100330008CE0C3D0BC98BD98BB98BA9A8AD0C7DE6F
:1003400078941092B90085D0DBDF83D09BDF81D019
:10035000E8DEF9CF949A00C094980895CF93DF9384
:10036000662311F0929A01C092989398889A899A7C
:10037000D19AD09AD898D9989198909887FDD89A80
:10038000C82FDD27C6FDD99AC5FD919AC4FD909A64
:10039000E1DFD898D99891989098C3FDD89AC2FD7A
:1003A000D99AC1FD919AC0FD909AD4DF909A919A02
:1003B000D99AD89ADF91CF910895882311F0929A13
:1003C00001C09298939A88988998D198D098949AD5
:1003D00000C0809B02C080E101C080E08199806202
:1003E000C9998064C8998068949800C0949A00C0A4
:1003F0008099816081998260C9998460C899886078
:1004000094989927089580E0D8DF87FDFCCF84E099
:1004100090E00197F1F780E0D0DF992708951F93CE
:10042000182FF1DF60E0812F99DF1F9108951F934E
:10043000182FE9DF61E0812F91DF1F910895662376
:1004400011F4805801C08054EADF0895DCDF992759
:10045000089581E0E4DF089582E0E1DF08951F93CD
:10046000182FD1DF1A3041F4803410F480E401C039
:1004700080E08058D4DF03C061E0812F6FDF1F91DF
:100480000895CF93DF93D92FC82F01C0E8DF89915A
:100490008823E1F7DF91CF910895CF93DF93D92F90
:1004A000C82F01C0DCDFFD2FEC2F2196C895802DD1
:1004B0008823C1F7DF91CF910895FF920F931F9387
:1004C000F82E8A9A8B9A8C9A889A899AD19AD09A7D
:1004D00080E09DE70197F1F7919A909A3BDF80E0E9
:1004E00097E20197F1F736DF00E810E0912F802FB7
:1004F0000197F1F72FDF912F802F0197F1F7909857
:1005000029DF912F802F0197F1F788E288DF88E0BB
:1005100086DF9FDF86E083DF8F2D81DF1F910F91C4
:10052000FF900895E62FF72F2E2F3F2FE8944230AB
:10053000C4F04532B4F44A3029F497FB1EF4909588
:1005400081959F4F642F772734D0805D8A330CF0DC
:10055000895D8193862F972F0097A1F716F45DE2AE
:1005600051931082822F932F00C0A82FB92FE82F0C
:10057000F92F672F71917723E1F7329704C07C91AF
:100580006D9370836291AE17BF07C8F30895552726
:10059000002480FF02C0060E571F660F771F6115EB
:1005A000710521F096958795009799F7952F802DE5
:1005B0000895AA1BBB1B51E107C0AA1FBB1FA617AA
:1005C000B70710F0A61BB70B881F991F5A95A9F7FC
:1005D00080959095682F792F8A2F9B2F0895FFCFB4
:1005E0005A6569743A200020732000466572746968
:1005F000672100477574656E204170706574697479
:1006000000526F656872656E006265696465006FAF
:1006100062656E2000756E74656E0042656C69637C
:100620006874756E67736461756572002053656BDD
:08063000756E64656E20200068
:00000001FF
